:020000040800F2
:1000000068050020D500000871140008411300089D
:1000100000000000000000000000000000000000E0
:100020000000000000000000000000002D15000886
:100030000000000000000000B91400082F1500089F
:100040000501000805010008050100080501000878
:100050000501000841020008050100084B020008E4
:10006000000000000501000821020008310200081C
:100070000501000805010008000000000501000856
:100080000000000000000000000000000000000070
:100090000501000800000000000000000501000844
:1000A0000000000005010008000000000000000042
:1000B000B91A000845130008000000000000000005
:1000C0000348854600F09AF800480047051B0008E1
:1000D000680500200C4880F308880C480168090E68
:1000E0000B4A914205D10B480B4901600B480C4962
:1000F00001600C4880470C480047FEE7FEE7FEE73A
:10010000FEE7FEE7FEE700006805002004000000AF
:100110001F000000341002400100000000000140F8
:1001200000000000C9150008C100000830B50B46EA
:10013000014600202022012409E00D46D5409D42C1
:1001400005D31D469540491B254695404019154647
:10015000521E002DF1DC30BDF0B51FB40646002064
:1001600082B005464024019100901BE0019922468F
:100170000F46304600F030F8049A059B801A9941EA
:1001800010D310461946224600F016F8361A8F4151
:100190000197224601200021009F00F00DF8381839
:1001A0004D4100902046641E0028DFDC019B009832
:1001B0002946324607B0F0BD10B5202A04DB0146BF
:1001C000203A9140002010BD914020239C1A034604
:1001D000E3401943904010BD10B5202A04DB0846C7
:1001E000203AD040002110BD0B46D340D0402024FF
:1001F000A21A91400843194610BD0000064C012583
:10020000064E05E0E36807CC2B430C3C98471034BE
:10021000B442F7D3FFF758FF741B0008941B000883
:1002200010B5024800F054F810BD0000E8000020AE
:1002300010B5024800F04CF810BD00002801002065
:1002400010B5022000F09CF910BD10B5802000F020
:1002500097F910BD70B50024014620314A79022A71
:1002600003D00421C16301242EE0026813680E2527
:10027000AB431360026813685B085B001360134BA9
:1002800002689A4201D1012213E0104B14339A42C2
:1002900001D110220DE00D4B28339A4201D1921565
:1002A00007E00A4B3C339A4201D1921401E001224B
:1002B0001204064B083B5A6001224A7100220A715F
:1002C000816B002900D08847204670BD080002409D
:1002D000F8B5044672480168714A714E704F083291
:1002E0002068D3141C363037904201D1082210E028
:1002F000B04201D180220CE0B84201D11A4608E098
:10030000674A4432904202D10122D20301E0012225
:10031000D20425461140203500292DD00168090757
:100320002AD501680822914301605D49206808319F
:10033000884201D1082010E0B04201D180200CE0B9
:10034000B84201D1184608E055494431884202D1EB
:100350000120C00301E00120C00451494860E06B66
:1003600001210843E0630420687100202871616B5B
:10037000002901D02046884749480268484920683A
:1003800008310B15884201D1042110E0B04201D19F
:1003900040210CE0B84201D1194608E040494431FF
:1003A000884202D10121890301E0012189040A4226
:1003B0002AD00168490727D50168890603D4026855
:1003C00004218A430260364920680831884201D1FD
:1003D000042010E0B04201D140200CE0B84201D12D
:1003E000184608E02E494431884202D1012080039A
:1003F00001E0012080042A49486005206871216BD2
:10040000002901D0204688472548026824492068F1
:100410000831884201D1022311E0B04201D12023EA
:100420000DE0B84202D101235B0208E01C4B4433CB
:10043000984202D101235B0301E001235B041A42CD
:100440002DD0026892072AD50268920603D402686A
:1004500002239A4302602068884201D1022011E001
:10046000B04201D120200DE0B84202D1012040026B
:1004700008E00B494431884202D10120400301E0E9
:100480000120400406494860E06BE0630120687188
:1004900000202871E16A002901D020468847F8BD74
:1004A0000000024070B5002805D002462032517984
:1004B000002902D003E0012070BD0021117102214A
:1004C0005171046823682B49C5680B4081684669EF
:1004D000294305693543294385692943C56929436A
:1004E000056A2943194321602349234C0368783165
:1004F000A34206D18B6A1B091B018B628B6A406881
:1005000031E01D4C1434A34207D18B6AF024A3437D
:100510008B628B6A4068000125E0174C2834A342A7
:1005200008D18B6A0F242402A3438B628B6A406834
:10053000000218E0104C3C34A34208D18B6A0F240F
:100540002403A3438B628B6A406800030BE00A4CD0
:100550005034A34209D18B6A0F242404A3438B6235
:100560008B6A8088000403438B6201205071002055
:1005700070BD00000FC0FFFF080002407047000080
:1005800010B504494A69024202D04861FFF7F6FFFC
:1005900010BD000000040140F8B50023012498E0DC
:1005A00027469F403A4070D04D68022D01D0122D51
:1005B00014D1DD08AD002D1800952D6A5E07AC46FC
:1005C000F50E0F26AE46AE406546B543AC460E6905
:1005D0007546AE4065462E43009D2E624D68012D46
:1005E00005D0022D03D0112D01D0122D16D1856812
:1005F0000326AC465D00AE46AE406546B543AC460C
:10060000CE687546AE4065462E43866046680D79D5
:10061000BE43ED06ED0F9D403543456006685F0023
:100620000325BD40AE46AE430D79B446AE07B60FC6
:10063000BE4065462E430660C6687546AE438D686B
:10064000BD403543C5604D68ED0041D5244D6E6B0E
:1006500026436E639E08234DB6007519AC46AD68FF
:100660009E07360F0F27B740BD4305273F07B84207
:1006700001D100270BE01C4FB84201D1012706E051
:100680001A4FB84202D1022701E021E00627B74005
:100690002F436546AF60164D2E684F689643FF03A3
:1006A00000D516432E606E684F689643BF0300D591
:1006B00016436E60AE684F689643FF0200D516433E
:1006C000AE60EE684F689643BF0200D51643EE60F9
:1006D0005B1C0A681546DD4000D061E7F8BD0000EC
:1006E00000100240000001400004005000080050CB
:1006F00000040140002A01D0816170478162704787
:1007000001480068704700000000002002480168AE
:10071000491C0160704700000000002010B5064829
:100720000168402211430160002000F007F800F04A
:1007300019F8002010BD00000020024010B504464A
:1007400007487D21C9000068FFF7F0FC00F078FC45
:1007500000222146501E00F02BF8002010BD0000A2
:100760000400002010B50C48416B01221143416385
:10077000816B02041143816300221146501F00F077
:1007800017F800221146901E00F012F800221146C0
:10079000501E00F00DF810BD00100240C106C90E39
:1007A00001208840014908607047000000E100E036
:1007B00010B500F05FFE10BDF8B53A4903460124BC
:1007C0000020E403364D374A4031022B31D0042B50
:1007D00049D0082B56D0202B0BD10B690969032572
:1007E0002D0429406700A600B94203D199052CE0E9
:1007F0002046F8BDB14203D19907FAD52A48F8BD81
:10080000A942FCD111688903F9D5116803200005BC
:10081000014001200005091A09D0091A05D08142BA
:1008200001D12248F8BD2248F8BD2248F8BD22482F
:10083000F8BDCB680C2633400AD0082B0BD0042B14
:100840000ED00C2BF4D1096989050029D0DBF8BD45
:1008500000F096F9F8BD11684907FBD52846F8BDA8
:1008600000F0AEF9F8BDCB680326B6023340EFD0F6
:100870000127FF02BB42EED07A109342F0D0B34280
:10088000E1D0F8BDC96803231B031940E0D001245F
:1008900064036310A142DED09942E1D0F8BD0000AC
:1008A0000024F400001002408890000020A10700FE
:1008B00000093D0040420F0080841E00F8B5044648
:1008C00000784F4D800672D54D4E0027403EB06BEC
:1008D000C00004D4B06BA9050843B06301274948A0
:1008E0000168C90511D40168821511430160FFF741
:1008F00007FF009005E0FFF703FF0099401A642806
:1009000037D840480068C005F5D53268032109058D
:1009100060680A400140914208D08103890F032991
:1009200004D13168890301D50120F8BD2A6903216A
:1009300009040A4022D0084090421FD02078800647
:100940001CD528692A6988430121C9040A432A6100
:100950002A698A432A612861C0050FD5FFF7D0FEB6
:10096000009008E0FFF7CCFE0099411A264881422A
:1009700001D90320F8BD28698005F3D56168880393
:10098000800F032805D132680005824301400A43E5
:10099000326028690322616812041140084328610B
:1009A000002F04D0B16B012000078143B163207890
:1009B000800705D5E8680C218843A1680843E860F2
:1009C0002078400706D5E868032189028843E1685A
:1009D0000843E8602078000706D5E868032109038A
:1009E000884321690843E8602078000606D5E86856
:1009F00003218904884361690843E8600020F8BD49
:100A0000401002400070004088130000F8B5054611
:100A100053480E460068C007C00FB0420AD2504883
:100A2000016849084900314301600068C007C00FF0
:100A3000B0426FD128784B4C800705D5E068F02193
:100A40008843A9680843E0602878C00752D06868E6
:100A5000022817D0032818D02168012818D089054A
:100A6000002957DAE168890889000143E160FFF74E
:100A700047FE69680746022912D003291CD00129C4
:100A800026D033E021688903EAE721688901E7E796
:100A90004907E5E7FFF734FEC11B3348814223D8FD
:100AA000E0680007800F0228F4D123E0FFF728FE5A
:100AB000C11B2D48814217D8E0680007800F03282A
:100AC000F4D117E0FFF71CFEC11B274881420BD869
:100AD000E0680007800F0128F4D10BE0FFF710FE5B
:100AE000C11B2148814201D90320F8BDE0680007FD
:100AF000800FF3D11A480168C907C90FB1420BD959
:100B0000016849084900314301600068C007C00F0F
:100B1000B04201D00120F8BD2878400706D5E06832
:100B2000072109028843E9680843E0602878000744
:100B300007D5E0680721C90288432969C90008432D
:100B4000E06000F03DF8E168084A0906090F515CD1
:100B5000C840074908600020FFF7F0FD0020F8BDFD
:100B6000002002400010024088130000501B0008C3
:100B700004000020014800687047000004000020C5
:100B8000044805490068C968044A4905490F515C91
:100B9000C84070470400002000100240691B000894
:100BA000044805490068C968044A8904490F515C32
:100BB000C84070470400002000100240691B000874
:100BC00010B5184AD1680C20084004280BD008281A
:100BD00010D00C2810D050680004410F0120C00331
:100BE000491C884010BD1068C00601D50E4810BDD4
:100BF0000E4810BD0E4810BD88020E4B000F185C49
:100C00000902D368890F491CDB0301D5084A05E0B6
:100C10001268D20601D5044A00E0044A5043FFF7A7
:100C200085FA10BD0010024000093D000024F400C8
:100C300000127A00601B0008F8B504460078F24DF7
:100C4000C0074AD0E8680007800F022807D0E8688C
:100C50000007800F032809D1E868C00306D528687B
:100C600080033AD56068002873D036E001206268BE
:100C70000004824203D129680143296011E0052361
:100C800001211B0489049A422A6802D10A432A607E
:100C9000F1E782432A602A6802400092286888436C
:100CA0002860606800280CD0FFF72AFD064604E0A3
:100CB000FFF726FD801B64287ED828688003F7D5BF
:100CC0000BE0FFF71DFD064604E0FFF719FD801B52
:100CD0006428F1D828688003F7D42078800741D5AC
:100CE000E8681F270007800F3F02012807D0E86847
:100CF0000007800F032809D1E868C00306D42868DC
:100D0000400717D5E068012823D113E0E0680028E8
:100D100017D029680922914301432960FFF7F0FCAD
:100D2000064604E0FFF7ECFC801B0228C4D82868C4
:100D30004007F7D568682169B8430902084368602D
:100D400010E02868400840002860FFF7D9FC0646FC
:100D500005E090E0FFF7D4FC801B0228ACD828689F
:100D60004007F7D42078C00676D5E868A74E00077C
:100D7000800F0BD0A06900285DD02868FF210131C9
:100D800008432860FFF7BCFC074644E0286880055C
:100D900002D5A06900286ED0206A69683140884277
:100DA00012D900F08BFB0028AED16868216AB043ED
:100DB00008436860686800E0BBE00002217F000A29
:100DC0000906084368600FE06968B1430143696040
:100DD0006868217F0002000A090608436860206AEB
:100DE00000F06CFB00288FD1206A410B0120C0036A
:100DF000491C8840E96809060A0F8549895CC84092
:100E0000844908600020FFF799FC25E0FFF778FC93
:100E1000C01B02288AD828688005F7D56868216A2F
:100E2000B043084368606868217F0002000A090631
:100E30000843686010E02968FF2001308143296081
:100E4000FFF75EFC064604E0FFF75AFC801B022811
:100E50006FD828688005F7D420786F4E000723D517
:100E600060690028306910D0012108433061FFF724
:100E700047FC074605E0C5E0FFF742FCC01B02281F
:100E800057D830698007F7D50EE040084000306140
:100E9000FFF736FC074604E0FFF732FCC01B0228D0
:100EA00047D830698007F7D42078400762D5A86B0F
:100EB0000027C00005D4A86B012109070843A863D7
:100EC000012756480168C90511D4016882151143EC
:100ED0000160FFF715FC009005E0FFF711FC009999
:100EE000401A642825D84D480068C005F5D5FF2074
:100EF000A2680130824203D131690143316111E0BE
:100F000001218902002A07D005231B029A4203D13E
:100F100032690A433261EFE73269824332613069F4
:100F200088433061A06800280FD0FFF7E9FB0090EC
:100F300007E060E0FFF7E4FB0099411A384881427E
:100F400059D830698005F5D50DE0FFF7D9FB009041
:100F500006E0FFF7D5FB0099411A314881424AD893
:100F600030698005F5D4002F04D0A96B012000075B
:100F70008143A963606A002842D0E9680907890FA4
:100F800003293FD0012636060228286805D0B04341
:100F90002860FFF7B5FB04462FE0B0432860FFF759
:100FA000AFFB074604E0FFF7ABFBC01B022822D8CB
:100FB00028688001F7D4E16AA06AEA680843216BD7
:100FC000FD231B049A4311430843E860286830431B
:100FD0002860FFF795FB044604E0FFF791FB001B38
:100FE000022808D828688001F7D509E0FFF788FBB8
:100FF000001B022801D90320F8BD28688001F5D420
:101000000020F8BD0120F8BD0010024000E0000003
:10101000501B0008040000204010024000700040F7
:1010200088130000042204490428086902D0904370
:10103000086170471043FBE700E000E070470000E4
:10104000094910B5401E884201D9012010BD074C46
:1010500060610321081F00F00DFA0020A061072045
:101060002061002010BD0000FFFFFF0000E000E055
:1010700010B5FFF7E3FF10BD70477047F8B5026881
:101080000446D06911680607360F07D1830605D5D7
:101090008B0603D5204600F070FBF8BD9568202331
:1010A000002E65D0EE07F60FFF2721370F4037439C
:1010B0005ED0C70706D0CF0504D501271762E26EC0
:1010C0003A43E266820708D5EA0706D0276802227B
:1010D0003A62E26E04273A43E266420708D5EA071D
:1010E00006D0256804222A62E26E02252A43E266BF
:1010F000020709D50A461A40324305D02368082260
:101100001A62E36E1343E366E26E002AC5D08006DE
:1011100004D5880602D5204600F02FFBE06E0007BC
:1011200003D42068806840061CD5204600F016FBDA
:1011300020688168490611D5826840218A4382600F
:10114000606E00280AD01D498163606EFFF782F847
:101150000028A2D0606E816B8847F8BD2046FFF75B
:101160008CFFF8BD2046FFF788FF0020E066F8BD41
:101170002646C7026036002F0ADA6D0208D5012024
:10118000000510627372B3722046FFF775FFF8BD59
:10119000050605D50D0603D5204600F029FCF8BD4F
:1011A0004006FCD54806FAD52046146840218C43F9
:1011B0001460737200F0C3F8F8BD0000491700080E
:1011C00070B5040005D025466035687A002802D045
:1011D00006E0012070BD00202872204600F026F8AD
:1011E0002420687220680168490849000160606A2B
:1011F000002802D0204600F011FA204600F0FCFA48
:101200000128E7D0206841680922D2029143416059
:10121000206881682A229143816020680168012248
:1012200011430160204600F05FFA70BDF0B506463C
:10123000354D0368002435480321022285B0AB42B6
:101240002CD1836B55042B4383636B4616C3062056
:1012500004900391052069460007FFF79DF92D4D85
:101260002B482860AC600520EC6068606C61AC6164
:10127000EC6180202C6228612846FFF713F90028D2
:1012800003D06E2124A000F01FFC756600221146D9
:101290001D20AE62FFF78CFA1D2031E0254DAB42D8
:1012A00030D1836B01256D042B4383630320042716
:1012B0000391400204976B4615C305206946000759
:1012C000FFF76AF91C4D1248AC602830EC6081C50C
:1012D000EC602C616C618020AC61A8601648083D10
:1012E000FFF7E0F8002803D09A210BA000F0ECFBF8
:1012F0007566002211461C20AE62FFF759FA1C20C9
:10130000FFF74CFA05B0F0BD004800400010024065
:1013100030000240E80000202E2E2F5372632F73FE
:10132000746D33326C3078785F68616C5F6D7370A8
:101330002E630000004400402801002070477047E1
:10134000FEE7000010B50248FFF798FE10BD000050
:1013500008000020F0B5254887B0C26A04210A437E
:10136000C262C26A0A400592C16A01242143C16275
:10137000C16A21400591C16A02252943C162C06A40
:10138000052628403607059000226C213046FFF7DD
:10139000B1F901946C200024009002946946304613
:1013A0000394FFF7F9F88020114F009069460197E8
:1013B00002943046FFF7F0F869460E480197009511
:1013C0000294FFF7E9F8002211460520FFF7F0F933
:1013D0000520FFF7E3F9002211460720FFF7E8F99F
:1013E0000720FFF7DBF907B0F0BD00000010024056
:1013F000000011100004005010B50D480B490160A9
:10140000E12149024160C90481600021C16001619C
:101410000C22816142610162802141620903816481
:10142000FFF7CEFE002800D0FEE710BD00480040C8
:101430000800002010B50D480B4901604B21C9017F
:10144000416000218160C160016181610C22C16144
:10145000426101628021416209038164FFF7B0FEAD
:10146000002800D0FEE710BD0044004078000020B6
:10147000704700008307FF22DB0E9A408907090EA0
:10148000994000280BDA0007000F08388308084845
:101490009B001818C36993430B43C36170478308CB
:1014A00004489B001B181868904308431860704755
:1014B00000ED00E000E400E07047000070B517495F
:1014C0000023CA681206120F18D18A6B154CD5007A
:1014D000134A02D51268224009E08E6B01252D07C0
:1014E0002E438E6312688E6B2240AE438E63A242FF
:1014F00004D103218903884200D101230A480168ED
:1015000049084900194301600068C007C00F9842AC
:1015100001D0012070BD002070BD0000001002400D
:10152000007000400018000000200240704710B515
:10153000FFF7ECF8FFF79CFD10BD000010B5214847
:1015400098B001680322D2029143C2148918016045
:1015500010200090012006900520002440030890F0
:10156000079409946846FFF767FB002800D0FEE760
:101570000F200D900E940F941094002111940DA83B
:10158000FFF744FA002800D0FEE7062012901494DA
:10159000159412A8FFF792F9002800D0FEE7FFF794
:1015A000E9FA7D21C900FEF7C1FDFFF749FD0420DE
:1015B000FFF738FD00221146501EFFF7F9F818B06A
:1015C00010BD0000007000401048016882151143F2
:1015D0000160C1680E4A1140C16001680D4A1140A6
:1015E0000160816849084900816001680122920414
:1015F00091430160C168FD2212049143C160002142
:1016000001610549C0038860704700000010024076
:101610000C40FF88F6FFF6FE00ED00E010B5818C6F
:10162000C90707D001684A6801235B049A43836AAB
:101630001A434A60818C890707D501684A680123EB
:101640001B049A43C36A1A434A60818C490707D531
:1016500001684A6801239B049A43036B1A434A605A
:10166000818C090707D501684A680123DB039A4387
:10167000436B1A434A60818CC90607D5026891689A
:1016800001231B039943836B19439160818C890665
:1016900007D501688A6801235B039A43C36B1A4329
:1016A0008A60818C490612D503685A6801210905B0
:1016B000046C8A4322435A60026C8A4207D1026852
:1016C000516803235B059943436C19435160818C36
:1016D000090607D501684A680123DB04806C9A4338
:1016E00002434A6010BD0000F8B500260446C666F5
:1016F000FFF706F8054620680068124F000709D575
:1017000001212B46002249052046009700F0A3F94D
:1017100000280DD12068006840070BD501212B4619
:10172000002289052046009700F095F9002801D095
:101730000320F8BD202060346072A0722672002061
:10174000F8BD0000FFFFFF0110B5806A00220146CE
:1017500040314A834A82FFF790FC10BD01680A6855
:10176000FF2321339A430A6001688A6852085200B5
:101770008A60202160308172704770B50246403225
:1017800001466031938B8D7A0C460168222D05D07D
:101790008869082210438861022070BD496A0126C9
:1017A0008568360389B2B54202D10569002D0BD098
:1017B0001940436D5D1C45651970518B491E090424
:1017C000090C518307D015E0456D19402980416D02
:1017D000891C4165F1E701680A68FF2321339A43B8
:1017E0000A6001688A68520852008A602021A1724A
:1017F000FFF7A4FD002070BDFEB5044601688068B7
:101800002269E36910436269102700261A431043D6
:101810000A6835466D4B1A4002430A6021684868E1
:10182000032212039043E26810434860684A21682B
:10183000A069914201D0226A10438A680B231B02DF
:101840009A4302438A60634A2068634990420AD1FE
:10185000C8680C2108402BD004282DD0082829D096
:101860000C2810D10EE05A4A90420CD1C9680320CE
:10187000800201401CD01015091A1DD0091A19D078
:10188000814200D108270220FEF796FF0190504BBD
:10189000514922684039D81300929A4235D1002F1D
:1018A0000CD0022F0DD0042F12D0082F1CD113E022
:1018B0000027E8E70227E6E70427E4E7FFF760F9F7
:1018C00008E00868C00601D5444805E0444803E044
:1018D000FFF776F9002873D06268510051188142F1
:1018E00002D81103814201D2012569E0010E0602EE
:1018F0005008002330185941FEF72EFC032109023D
:10190000384A411A914259D9EEE7E26982422DD113
:101910003B0000F0DAF80906080B24192424241FE0
:101920002400019812E0FFF73BF90FE008686168B6
:10193000C00602D548082C4A01E02C4A4808801805
:10194000FEF7F4FB86B20BE0FFF73AF9616840005E
:101950004A08F4E76168012248081204EFE701250C
:10196000310909013007400F084327E03B0000F030
:10197000ACF809070A0D061D060606290600B3E79E
:10198000FFF7FEF814E0FFF70BF911E00868616853
:10199000C00602D54A08114801E011484A0810184B
:1019A000FEF7C4FB81B20098C16009E0FFF708F9B7
:1019B00061684A088018FEF7B9FB80B22168C860E8
:1019C0002846FEBD61684A08E9E70000F369FFEFB9
:1019D00000480040004400404010024000093D0023
:1019E0000024F400FFFC0F0000127A000048E80118
:1019F0006921095C212901D002207047024640324A
:101A0000518A002912D0012381681B03994202D117
:101A10000169002915D0C16C4B1CC36400680978AA
:101A20008162508A401E50820020704701680A6817
:101A300080239A430A6000680168402211430160D4
:101A4000F2E7C16C03680988C905C90D9962C16CC8
:101A5000891CC164E5E7FFB581B017460E46044610
:101A60000A9D1DE0681C1BD0002D05D0FEF748FE26
:101A70000499401AA84213D920680168FF22A132B4
:101A800091430160206881684908490081602020F5
:101A900060346072A07200202072032005B0F0BD97
:101AA0002068C1693046884304D00020B842D9D0AC
:101AB0000020F3E70120F9E710B50248FFF7DEFA4E
:101AC00010BD000078000020FEE730B47446641EAC
:101AD0002578641CAB4200D21D46635D5B00E318B1
:101AE00030BC184702E008C8121F08C1002AFAD10A
:101AF00070477047002001E001C1121F002AFBD18E
:101B00007047000008B5FEF709FEFFF717FDFFF765
:101B100021FC0E48016B012211430163006B104050
:101B20000022009011460A20FEF742FE0A20FEF72E
:101B300035FE002211460B20FEF73AFE0B20FEF781
:101B40002DFEFFF759FCFFF775FCFEE70010024081
:101B5000000000000000000001020304060708095D
:101B6000030406080C1018203000000000010203D6
:101B700004000000941B0008000000200800000082
:101B8000E41A00089C1B0008080000206005000003
:0C1B9000F41A00080000000080841E0011
:04000005080000C12E
:00000001FF
